{
  "_format": "hh-sol-artifact-1",
  "contractName": "CommodityEscrow",
  "sourceName": "contracts/CommodityEscrow.sol",
  "abi": [
    {
      "anonymous": false,
      "inputs": [
        {
          "indexed": true,
          "internalType": "uint256",
          "name": "batchId",
          "type": "uint256"
        }
      ],
      "name": "AgreementCancelled",
      "type": "event"
    },
    {
      "anonymous": false,
      "inputs": [
        {
          "indexed": true,
          "internalType": "uint256",
          "name": "batchId",
          "type": "uint256"
        },
        {
          "indexed": true,
          "internalType": "address",
          "name": "buyer",
          "type": "address"
        },
        {
          "indexed": true,
          "internalType": "address",
          "name": "seller",
          "type": "address"
        },
        {
          "indexed": false,
          "internalType": "address",
          "name": "arbiter",
          "type": "address"
        }
      ],
      "name": "AgreementInitialized",
      "type": "event"
    },
    {
      "anonymous": false,
      "inputs": [
        {
          "indexed": true,
          "internalType": "uint256",
          "name": "batchId",
          "type": "uint256"
        },
        {
          "indexed": true,
          "internalType": "address",
          "name": "openedBy",
          "type": "address"
        },
        {
          "indexed": false,
          "internalType": "string",
          "name": "reason",
          "type": "string"
        }
      ],
      "name": "DisputeOpened",
      "type": "event"
    },
    {
      "anonymous": false,
      "inputs": [
        {
          "indexed": true,
          "internalType": "uint256",
          "name": "batchId",
          "type": "uint256"
        },
        {
          "indexed": true,
          "internalType": "address",
          "name": "payer",
          "type": "address"
        },
        {
          "indexed": false,
          "internalType": "uint256",
          "name": "amount",
          "type": "uint256"
        }
      ],
      "name": "FundsDeposited",
      "type": "event"
    },
    {
      "anonymous": false,
      "inputs": [
        {
          "indexed": true,
          "internalType": "uint256",
          "name": "batchId",
          "type": "uint256"
        },
        {
          "indexed": true,
          "internalType": "address",
          "name": "beneficiary",
          "type": "address"
        },
        {
          "indexed": false,
          "internalType": "uint256",
          "name": "amount",
          "type": "uint256"
        }
      ],
      "name": "PaymentReleased",
      "type": "event"
    },
    {
      "inputs": [
        {
          "internalType": "uint256",
          "name": "batchId",
          "type": "uint256"
        },
        {
          "internalType": "string",
          "name": "reason",
          "type": "string"
        }
      ],
      "name": "abrirDisputa",
      "outputs": [],
      "stateMutability": "nonpayable",
      "type": "function"
    },
    {
      "inputs": [
        {
          "internalType": "uint256",
          "name": "",
          "type": "uint256"
        }
      ],
      "name": "agreements",
      "outputs": [
        {
          "internalType": "uint256",
          "name": "batchId",
          "type": "uint256"
        },
        {
          "internalType": "address",
          "name": "buyer",
          "type": "address"
        },
        {
          "internalType": "address",
          "name": "seller",
          "type": "address"
        },
        {
          "internalType": "address",
          "name": "arbiter",
          "type": "address"
        },
        {
          "internalType": "uint256",
          "name": "amount",
          "type": "uint256"
        },
        {
          "internalType": "enum CommodityEscrow.EscrowStatus",
          "name": "status",
          "type": "uint8"
        },
        {
          "internalType": "uint256",
          "name": "createdAt",
          "type": "uint256"
        },
        {
          "internalType": "uint256",
          "name": "depositedAt",
          "type": "uint256"
        },
        {
          "internalType": "bool",
          "name": "exists",
          "type": "bool"
        }
      ],
      "stateMutability": "view",
      "type": "function"
    },
    {
      "inputs": [
        {
          "internalType": "uint256",
          "name": "batchId",
          "type": "uint256"
        }
      ],
      "name": "cancelarAcuerdo",
      "outputs": [],
      "stateMutability": "nonpayable",
      "type": "function"
    },
    {
      "inputs": [
        {
          "internalType": "uint256",
          "name": "batchId",
          "type": "uint256"
        }
      ],
      "name": "depositarFondos",
      "outputs": [],
      "stateMutability": "payable",
      "type": "function"
    },
    {
      "inputs": [
        {
          "internalType": "uint256",
          "name": "batchId",
          "type": "uint256"
        },
        {
          "internalType": "address",
          "name": "buyer",
          "type": "address"
        },
        {
          "internalType": "address",
          "name": "seller",
          "type": "address"
        },
        {
          "internalType": "address",
          "name": "arbiter",
          "type": "address"
        }
      ],
      "name": "initializeAgreement",
      "outputs": [],
      "stateMutability": "nonpayable",
      "type": "function"
    },
    {
      "inputs": [
        {
          "internalType": "uint256",
          "name": "batchId",
          "type": "uint256"
        }
      ],
      "name": "liberarPago",
      "outputs": [],
      "stateMutability": "nonpayable",
      "type": "function"
    }
  ],
  "bytecode": "0x608060405234801561001057600080fd5b50611b07806100206000396000f3fe6080604052600436106100555760003560e01c806316c3df3e1461005a5780632fcc1afc1461008357806338c88dbd146100ac578063453b7737146100d5578063bd14de96146100f1578063f967804914610136575b600080fd5b34801561006657600080fd5b50610081600480360381019061007c9190611150565b61015f565b005b34801561008f57600080fd5b506100aa60048036038101906100a591906111b0565b6103d2565b005b3480156100b857600080fd5b506100d360048036038101906100ce91906111b0565b6106c0565b005b6100ef60048036038101906100ea91906111b0565b610999565b005b3480156100fd57600080fd5b50610118600480360381019061011391906111b0565b610bf2565b60405161012d999897969594939291906112bf565b60405180910390f35b34801561014257600080fd5b5061015d60048036038101906101589190611378565b610cba565b005b8260008082815260200190815260200160002060010160009054906101000a900473ffffffffffffffffffffffffffffffffffffffff1673ffffffffffffffffffffffffffffffffffffffff163373ffffffffffffffffffffffffffffffffffffffff16148061022f575060008082815260200190815260200160002060020160009054906101000a900473ffffffffffffffffffffffffffffffffffffffff1673ffffffffffffffffffffffffffffffffffffffff163373ffffffffffffffffffffffffffffffffffffffff16145b61026e576040517f08c379a000000000000000000000000000000000000000000000000000000000815260040161026590611462565b60405180910390fd5b600080600086815260200190815260200160002090508060080160009054906101000a900460ff166102d5576040517f08c379a00000000000000000000000000000000000000000000000000000000081526004016102cc906114ce565b60405180910390fd5b600160058111156102e9576102e861122d565b5b8160050160009054906101000a900460ff16600581111561030d5761030c61122d565b5b1461034d576040517f08c379a000000000000000000000000000000000000000000000000000000000815260040161034490611560565b60405180910390fd5b60038160050160006101000a81548160ff021916908360058111156103755761037461122d565b5b02179055503373ffffffffffffffffffffffffffffffffffffffff16857f9b58afa035c5fa58f85c5a54b65bd3562d5aa7679e973bc1404fe25e8babab2186866040516103c39291906115cd565b60405180910390a35050505050565b600080600083815260200190815260200160002090508060080160009054906101000a900460ff16610439576040517f08c379a0000000000000000000000000000000000000000000000000000000008152600401610430906114ce565b60405180910390fd5b6001600581111561044d5761044c61122d565b5b8160050160009054906101000a900460ff1660058111156104715761047061122d565b5b146104b1576040517f08c379a00000000000000000000000000000000000000000000000000000000081526004016104a89061163d565b60405180910390fd5b8060010160009054906101000a900473ffffffffffffffffffffffffffffffffffffffff1673ffffffffffffffffffffffffffffffffffffffff163373ffffffffffffffffffffffffffffffffffffffff16148061055e57508060030160009054906101000a900473ffffffffffffffffffffffffffffffffffffffff1673ffffffffffffffffffffffffffffffffffffffff163373ffffffffffffffffffffffffffffffffffffffff16145b61059d576040517f08c379a0000000000000000000000000000000000000000000000000000000008152600401610594906116cf565b60405180910390fd5b6000816004015490506000826004018190555060028260050160006101000a81548160ff021916908360058111156105d8576105d761122d565b5b02179055508160020160009054906101000a900473ffffffffffffffffffffffffffffffffffffffff1673ffffffffffffffffffffffffffffffffffffffff166108fc829081150290604051600060405180830381858888f19350505050158015610647573d6000803e3d6000fd5b508160020160009054906101000a900473ffffffffffffffffffffffffffffffffffffffff1673ffffffffffffffffffffffffffffffffffffffff16837f21d71db5be59bb9fa133895586b7404307dd33fb93b16db09dc6f1d9d7d231b0836040516106b391906116ef565b60405180910390a3505050565b8060008082815260200190815260200160002060030160009054906101000a900473ffffffffffffffffffffffffffffffffffffffff1673ffffffffffffffffffffffffffffffffffffffff163373ffffffffffffffffffffffffffffffffffffffff1614610764576040517f08c379a000000000000000000000000000000000000000000000000000000000815260040161075b9061177c565b60405180910390fd5b600080600084815260200190815260200160002090508060080160009054906101000a900460ff166107cb576040517f08c379a00000000000000000000000000000000000000000000000000000000081526004016107c2906114ce565b60405180910390fd5b600060058111156107df576107de61122d565b5b8160050160009054906101000a900460ff1660058111156108035761080261122d565b5b148061084457506001600581111561081e5761081d61122d565b5b8160050160009054906101000a900460ff1660058111156108425761084161122d565b5b145b610883576040517f08c379a000000000000000000000000000000000000000000000000000000000815260040161087a906117e8565b60405180910390fd5b600160058111156108975761089661122d565b5b8160050160009054906101000a900460ff1660058111156108bb576108ba61122d565b5b0361093a578060010160009054906101000a900473ffffffffffffffffffffffffffffffffffffffff1673ffffffffffffffffffffffffffffffffffffffff166108fc82600401549081150290604051600060405180830381858888f1935050505015801561092e573d6000803e3d6000fd5b50600081600401819055505b60048160050160006101000a81548160ff021916908360058111156109625761096161122d565b5b0217905550827f0cae0523c4d6568388c55dcaeb921d927527a60000ca46adffedddf87225f0ec60405160405180910390a2505050565b8060008082815260200190815260200160002060010160009054906101000a900473ffffffffffffffffffffffffffffffffffffffff1673ffffffffffffffffffffffffffffffffffffffff163373ffffffffffffffffffffffffffffffffffffffff1614610a3d576040517f08c379a0000000000000000000000000000000000000000000000000000000008152600401610a349061187a565b60405180910390fd5b600080600084815260200190815260200160002090508060080160009054906101000a900460ff16610aa4576040517f08c379a0000000000000000000000000000000000000000000000000000000008152600401610a9b906114ce565b60405180910390fd5b60006005811115610ab857610ab761122d565b5b8160050160009054906101000a900460ff166005811115610adc57610adb61122d565b5b14610b1c576040517f08c379a0000000000000000000000000000000000000000000000000000000008152600401610b13906118e6565b60405180910390fd5b60003411610b5f576040517f08c379a0000000000000000000000000000000000000000000000000000000008152600401610b5690611952565b60405180910390fd5b34816004018190555042816007018190555060018160050160006101000a81548160ff02191690836005811115610b9957610b9861122d565b5b02179055503373ffffffffffffffffffffffffffffffffffffffff16837fe030e47e27825a2ad1b19e4cf2e70bfbfb3124af275c7727a82b114ba7b29a8534604051610be591906116ef565b60405180910390a3505050565b60006020528060005260406000206000915090508060000154908060010160009054906101000a900473ffffffffffffffffffffffffffffffffffffffff16908060020160009054906101000a900473ffffffffffffffffffffffffffffffffffffffff16908060030160009054906101000a900473ffffffffffffffffffffffffffffffffffffffff16908060040154908060050160009054906101000a900460ff16908060060154908060070154908060080160009054906101000a900460ff16905089565b60008403610cfd576040517f08c379a0000000000000000000000000000000000000000000000000000000008152600401610cf4906119be565b60405180910390fd5b600073ffffffffffffffffffffffffffffffffffffffff168373ffffffffffffffffffffffffffffffffffffffff1614158015610d675750600073ffffffffffffffffffffffffffffffffffffffff168273ffffffffffffffffffffffffffffffffffffffff1614155b8015610da05750600073ffffffffffffffffffffffffffffffffffffffff168173ffffffffffffffffffffffffffffffffffffffff1614155b610ddf576040517f08c379a0000000000000000000000000000000000000000000000000000000008152600401610dd690611a2a565b60405180910390fd5b60008085815260200190815260200160002060080160009054906101000a900460ff1615610e42576040517f08c379a0000000000000000000000000000000000000000000000000000000008152600401610e3990611a96565b60405180910390fd5b6040518061012001604052808581526020018473ffffffffffffffffffffffffffffffffffffffff1681526020018373ffffffffffffffffffffffffffffffffffffffff1681526020018273ffffffffffffffffffffffffffffffffffffffff1681526020016000815260200160006005811115610ec357610ec261122d565b5b815260200142815260200160008152602001600115158152506000808681526020019081526020016000206000820151816000015560208201518160010160006101000a81548173ffffffffffffffffffffffffffffffffffffffff021916908373ffffffffffffffffffffffffffffffffffffffff16021790555060408201518160020160006101000a81548173ffffffffffffffffffffffffffffffffffffffff021916908373ffffffffffffffffffffffffffffffffffffffff16021790555060608201518160030160006101000a81548173ffffffffffffffffffffffffffffffffffffffff021916908373ffffffffffffffffffffffffffffffffffffffff1602179055506080820151816004015560a08201518160050160006101000a81548160ff021916908360058111156110025761100161122d565b5b021790555060c0820151816006015560e082015181600701556101008201518160080160006101000a81548160ff0219169083151502179055509050508173ffffffffffffffffffffffffffffffffffffffff168373ffffffffffffffffffffffffffffffffffffffff16857f78e751467a47f7aed6a7fbd5ae800ada0ebab9c1a777093f67040083f9b017048460405161109d9190611ab6565b60405180910390a450505050565b600080fd5b600080fd5b6000819050919050565b6110c8816110b5565b81146110d357600080fd5b50565b6000813590506110e5816110bf565b92915050565b600080fd5b600080fd5b600080fd5b60008083601f8401126111105761110f6110eb565b5b8235905067ffffffffffffffff81111561112d5761112c6110f0565b5b602083019150836001820283011115611149576111486110f5565b5b9250929050565b600080600060408486031215611169576111686110ab565b5b6000611177868287016110d6565b935050602084013567ffffffffffffffff811115611198576111976110b0565b5b6111a4868287016110fa565b92509250509250925092565b6000602082840312156111c6576111c56110ab565b5b60006111d4848285016110d6565b91505092915050565b6111e6816110b5565b82525050565b600073ffffffffffffffffffffffffffffffffffffffff82169050919050565b6000611217826111ec565b9050919050565b6112278161120c565b82525050565b7f4e487b7100000000000000000000000000000000000000000000000000000000600052602160045260246000fd5b6006811061126d5761126c61122d565b5b50565b600081905061127e8261125c565b919050565b600061128e82611270565b9050919050565b61129e81611283565b82525050565b60008115159050919050565b6112b9816112a4565b82525050565b6000610120820190506112d5600083018c6111dd565b6112e2602083018b61121e565b6112ef604083018a61121e565b6112fc606083018961121e565b61130960808301886111dd565b61131660a0830187611295565b61132360c08301866111dd565b61133060e08301856111dd565b61133e6101008301846112b0565b9a9950505050505050505050565b6113558161120c565b811461136057600080fd5b50565b6000813590506113728161134c565b92915050565b60008060008060808587031215611392576113916110ab565b5b60006113a0878288016110d6565b94505060206113b187828801611363565b93505060406113c287828801611363565b92505060606113d387828801611363565b91505092959194509250565b600082825260208201905092915050565b7f4f6e6c79206275796572206f722073656c6c65722063616e206578656375746560008201527f207468697320616374696f6e0000000000000000000000000000000000000000602082015250565b600061144c602c836113df565b9150611457826113f0565b604082019050919050565b6000602082019050818103600083015261147b8161143f565b9050919050565b7f41677265656d656e7420646f6573206e6f742065786973740000000000000000600082015250565b60006114b86018836113df565b91506114c382611482565b602082019050919050565b600060208201905081810360008301526114e7816114ab565b9050919050565b7f4f6e6c79206469737075746520616c6c6f776564207768656e2066756e64732060008201527f617265206c6f636b656400000000000000000000000000000000000000000000602082015250565b600061154a602a836113df565b9150611555826114ee565b604082019050919050565b600060208201905081810360008301526115798161153d565b9050919050565b82818337600083830152505050565b6000601f19601f8301169050919050565b60006115ac83856113df565b93506115b9838584611580565b6115c28361158f565b840190509392505050565b600060208201905081810360008301526115e88184866115a0565b90509392505050565b7f41677265656d656e74206973206e6f742066756e646564000000000000000000600082015250565b60006116276017836113df565b9150611632826115f1565b602082019050919050565b600060208201905081810360008301526116568161161a565b9050919050565b7f4f6e6c79206275796572206f7220617262697465722063616e2072656c65617360008201527f65207061796d656e740000000000000000000000000000000000000000000000602082015250565b60006116b96029836113df565b91506116c48261165d565b604082019050919050565b600060208201905081810360008301526116e8816116ac565b9050919050565b600060208201905061170460008301846111dd565b92915050565b7f4f6e6c7920617262697465722063616e2065786563757465207468697320616360008201527f74696f6e00000000000000000000000000000000000000000000000000000000602082015250565b60006117666024836113df565b91506117718261170a565b604082019050919050565b6000602082019050818103600083015261179581611759565b9050919050565b7f43616e6e6f742063616e63656c20696e2063757272656e742073746174650000600082015250565b60006117d2601e836113df565b91506117dd8261179c565b602082019050919050565b60006020820190508181036000830152611801816117c5565b9050919050565b7f4f6e6c792062757965722063616e20657865637574652074686973206163746960008201527f6f6e000000000000000000000000000000000000000000000000000000000000602082015250565b60006118646022836113df565b915061186f82611808565b604082019050919050565b6000602082019050818103600083015261189381611857565b9050919050565b7f41677265656d656e74206e6f74206177616974696e67206465706f7369740000600082015250565b60006118d0601e836113df565b91506118db8261189a565b602082019050919050565b600060208201905081810360008301526118ff816118c3565b9050919050565b7f416d6f756e74206d7573742062652067726561746572207468616e207a65726f600082015250565b600061193c6020836113df565b915061194782611906565b602082019050919050565b6000602082019050818103600083015261196b8161192f565b9050919050565b7f496e76616c696420626174636849640000000000000000000000000000000000600082015250565b60006119a8600f836113df565b91506119b382611972565b602082019050919050565b600060208201905081810360008301526119d78161199b565b9050919050565b7f496e76616c696420616464726573730000000000000000000000000000000000600082015250565b6000611a14600f836113df565b9150611a1f826119de565b602082019050919050565b60006020820190508181036000830152611a4381611a07565b9050919050565b7f41677265656d656e7420616c7265616479206578697374730000000000000000600082015250565b6000611a806018836113df565b9150611a8b82611a4a565b602082019050919050565b60006020820190508181036000830152611aaf81611a73565b9050919050565b6000602082019050611acb600083018461121e565b9291505056fea26469706673582212207a4494d72d4079ec7bbc36f90f4e29be53be18c6fc910c7a11523da60a4b6c6c64736f6c63430008140033",
  "linkReferences": {},
  "deployedLinkReferences": {}
}